{
  "_format": "hh-sol-artifact-1",
  "contractName": "UniversityEnrollment",
  "sourceName": "contracts/UniversityEnrollment.sol",
  "abi": [
    {
      "anonymous": false,
      "inputs": [
        {
          "indexed": false,
          "internalType": "uint256",
          "name": "courseId",
          "type": "uint256"
        },
        {
          "indexed": false,
          "internalType": "string",
          "name": "name",
          "type": "string"
        },
        {
          "indexed": false,
          "internalType": "string",
          "name": "code",
          "type": "string"
        },
        {
          "indexed": false,
          "internalType": "uint256",
          "name": "maxStudents",
          "type": "uint256"
        }
      ],
      "name": "CourseCreated",
      "type": "event"
    },
    {
      "anonymous": false,
      "inputs": [
        {
          "indexed": false,
          "internalType": "address",
          "name": "student",
          "type": "address"
        },
        {
          "indexed": false,
          "internalType": "uint256",
          "name": "courseId",
          "type": "uint256"
        }
      ],
      "name": "Enrolled",
      "type": "event"
    },
    {
      "inputs": [],
      "name": "courseCount",
      "outputs": [
        {
          "internalType": "uint256",
          "name": "",
          "type": "uint256"
        }
      ],
      "stateMutability": "view",
      "type": "function"
    },
    {
      "inputs": [
        {
          "internalType": "uint256",
          "name": "",
          "type": "uint256"
        }
      ],
      "name": "courses",
      "outputs": [
        {
          "internalType": "string",
          "name": "name",
          "type": "string"
        },
        {
          "internalType": "string",
          "name": "code",
          "type": "string"
        },
        {
          "internalType": "uint256",
          "name": "maxStudents",
          "type": "uint256"
        },
        {
          "internalType": "uint256",
          "name": "enrolledCount",
          "type": "uint256"
        }
      ],
      "stateMutability": "view",
      "type": "function"
    },
    {
      "inputs": [
        {
          "internalType": "string",
          "name": "_name",
          "type": "string"
        },
        {
          "internalType": "string",
          "name": "_code",
          "type": "string"
        },
        {
          "internalType": "uint256",
          "name": "_maxStudents",
          "type": "uint256"
        }
      ],
      "name": "createCourse",
      "outputs": [],
      "stateMutability": "nonpayable",
      "type": "function"
    },
    {
      "inputs": [
        {
          "internalType": "uint256",
          "name": "_courseId",
          "type": "uint256"
        }
      ],
      "name": "enroll",
      "outputs": [],
      "stateMutability": "nonpayable",
      "type": "function"
    },
    {
      "inputs": [
        {
          "internalType": "uint256",
          "name": "_courseId",
          "type": "uint256"
        },
        {
          "internalType": "address",
          "name": "_student",
          "type": "address"
        }
      ],
      "name": "isEnrolled",
      "outputs": [
        {
          "internalType": "bool",
          "name": "",
          "type": "bool"
        }
      ],
      "stateMutability": "view",
      "type": "function"
    }
  ],
  "bytecode": "0x608060405234801561001057600080fd5b50610fe0806100206000396000f3fe608060405234801561001057600080fd5b50600436106100575760003560e01c8063660551591461005c57806396f979d21461007a578063a4adb24b146100ad578063c9768315146100c9578063f57d585b146100f9575b600080fd5b610064610115565b60405161007191906105f5565b60405180910390f35b610094600480360381019061008f9190610650565b61011b565b6040516100a4949392919061070d565b60405180910390f35b6100c760048036038101906100c29190610895565b61025b565b005b6100e360048036038101906100de919061097e565b61034a565b6040516100f091906109d9565b60405180910390f35b610113600480360381019061010e9190610650565b6103f8565b005b60015481565b600060205280600052604060002060009150905080600001805461013e90610a23565b80601f016020809104026020016040519081016040528092919081815260200182805461016a90610a23565b80156101b75780601f1061018c576101008083540402835291602001916101b7565b820191906000526020600020905b81548152906001019060200180831161019a57829003601f168201915b5050505050908060010180546101cc90610a23565b80601f01602080910402602001604051908101604052809291908181526020018280546101f890610a23565b80156102455780601f1061021a57610100808354040283529160200191610245565b820191906000526020600020905b81548152906001019060200180831161022857829003601f168201915b5050505050908060020154908060030154905084565b6000811161029e576040517f08c379a000000000000000000000000000000000000000000000000000000000815260040161029590610ac6565b60405180910390fd5b600080600060015481526020019081526020016000209050838160000190816102c79190610c92565b50828160010190816102d99190610c92565b50818160020181905550600081600301819055507f72544c5ce6ee5bb53270bc0efc84e658f095bb8958f018d9eae66d66672c94956001548585856040516103249493929190610d64565b60405180910390a16001600081548092919061033f90610de6565b919050555050505050565b60006001548310610390576040517f08c379a000000000000000000000000000000000000000000000000000000000815260040161038790610e7a565b60405180910390fd5b60008084815260200190815260200160002060040160008373ffffffffffffffffffffffffffffffffffffffff1673ffffffffffffffffffffffffffffffffffffffff16815260200190815260200160002060009054906101000a900460ff16905092915050565b600154811061043c576040517f08c379a000000000000000000000000000000000000000000000000000000000815260040161043390610e7a565b60405180910390fd5b600080600083815260200190815260200160002090508060040160003373ffffffffffffffffffffffffffffffffffffffff1673ffffffffffffffffffffffffffffffffffffffff16815260200190815260200160002060009054906101000a900460ff16156104e1576040517f08c379a00000000000000000000000000000000000000000000000000000000081526004016104d890610ee6565b60405180910390fd5b806002015481600301541061052b576040517f08c379a000000000000000000000000000000000000000000000000000000000815260040161052290610f52565b60405180910390fd5b60018160040160003373ffffffffffffffffffffffffffffffffffffffff1673ffffffffffffffffffffffffffffffffffffffff16815260200190815260200160002060006101000a81548160ff02191690831515021790555080600301600081548092919061059a90610de6565b91905055507f490a826084db94ebf4ad258b797124c9f62176dd5f68205ffbd52d1260f7ed5433836040516105d0929190610f81565b60405180910390a15050565b6000819050919050565b6105ef816105dc565b82525050565b600060208201905061060a60008301846105e6565b92915050565b6000604051905090565b600080fd5b600080fd5b61062d816105dc565b811461063857600080fd5b50565b60008135905061064a81610624565b92915050565b6000602082840312156106665761066561061a565b5b60006106748482850161063b565b91505092915050565b600081519050919050565b600082825260208201905092915050565b60005b838110156106b757808201518184015260208101905061069c565b60008484015250505050565b6000601f19601f8301169050919050565b60006106df8261067d565b6106e98185610688565b93506106f9818560208601610699565b610702816106c3565b840191505092915050565b6000608082019050818103600083015261072781876106d4565b9050818103602083015261073b81866106d4565b905061074a60408301856105e6565b61075760608301846105e6565b95945050505050565b600080fd5b600080fd5b7f4e487b7100000000000000000000000000000000000000000000000000000000600052604160045260246000fd5b6107a2826106c3565b810181811067ffffffffffffffff821117156107c1576107c061076a565b5b80604052505050565b60006107d4610610565b90506107e08282610799565b919050565b600067ffffffffffffffff821115610800576107ff61076a565b5b610809826106c3565b9050602081019050919050565b82818337600083830152505050565b6000610838610833846107e5565b6107ca565b90508281526020810184848401111561085457610853610765565b5b61085f848285610816565b509392505050565b600082601f83011261087c5761087b610760565b5b813561088c848260208601610825565b91505092915050565b6000806000606084860312156108ae576108ad61061a565b5b600084013567ffffffffffffffff8111156108cc576108cb61061f565b5b6108d886828701610867565b935050602084013567ffffffffffffffff8111156108f9576108f861061f565b5b61090586828701610867565b92505060406109168682870161063b565b9150509250925092565b600073ffffffffffffffffffffffffffffffffffffffff82169050919050565b600061094b82610920565b9050919050565b61095b81610940565b811461096657600080fd5b50565b60008135905061097881610952565b92915050565b600080604083850312156109955761099461061a565b5b60006109a38582860161063b565b92505060206109b485828601610969565b9150509250929050565b60008115159050919050565b6109d3816109be565b82525050565b60006020820190506109ee60008301846109ca565b92915050565b7f4e487b7100000000000000000000000000000000000000000000000000000000600052602260045260246000fd5b60006002820490506001821680610a3b57607f821691505b602082108103610a4e57610a4d6109f4565b5b50919050565b7f4d61782073747564656e7473206d75737420626520677265617465722074686160008201527f6e20300000000000000000000000000000000000000000000000000000000000602082015250565b6000610ab0602383610688565b9150610abb82610a54565b604082019050919050565b60006020820190508181036000830152610adf81610aa3565b9050919050565b60008190508160005260206000209050919050565b60006020601f8301049050919050565b600082821b905092915050565b600060088302610b487fffffffffffffffffffffffffffffffffffffffffffffffffffffffffffffffff82610b0b565b610b528683610b0b565b95508019841693508086168417925050509392505050565b6000819050919050565b6000610b8f610b8a610b85846105dc565b610b6a565b6105dc565b9050919050565b6000819050919050565b610ba983610b74565b610bbd610bb582610b96565b848454610b18565b825550505050565b600090565b610bd2610bc5565b610bdd818484610ba0565b505050565b5b81811015610c0157610bf6600082610bca565b600181019050610be3565b5050565b601f821115610c4657610c1781610ae6565b610c2084610afb565b81016020851015610c2f578190505b610c43610c3b85610afb565b830182610be2565b50505b505050565b600082821c905092915050565b6000610c6960001984600802610c4b565b1980831691505092915050565b6000610c828383610c58565b9150826002028217905092915050565b610c9b8261067d565b67ffffffffffffffff811115610cb457610cb361076a565b5b610cbe8254610a23565b610cc9828285610c05565b600060209050601f831160018114610cfc5760008415610cea578287015190505b610cf48582610c76565b865550610d5c565b601f198416610d0a86610ae6565b60005b82811015610d3257848901518255600182019150602085019450602081019050610d0d565b86831015610d4f5784890151610d4b601f891682610c58565b8355505b6001600288020188555050505b505050505050565b6000608082019050610d7960008301876105e6565b8181036020830152610d8b81866106d4565b90508181036040830152610d9f81856106d4565b9050610dae60608301846105e6565b95945050505050565b7f4e487b7100000000000000000000000000000000000000000000000000000000600052601160045260246000fd5b6000610df1826105dc565b91507fffffffffffffffffffffffffffffffffffffffffffffffffffffffffffffffff8203610e2357610e22610db7565b5b600182019050919050565b7f436f7572736520646f6573206e6f742065786973740000000000000000000000600082015250565b6000610e64601583610688565b9150610e6f82610e2e565b602082019050919050565b60006020820190508181036000830152610e9381610e57565b9050919050565b7f416c726561647920656e726f6c6c656400000000000000000000000000000000600082015250565b6000610ed0601083610688565b9150610edb82610e9a565b602082019050919050565b60006020820190508181036000830152610eff81610ec3565b9050919050565b7f436f757273652069732066756c6c000000000000000000000000000000000000600082015250565b6000610f3c600e83610688565b9150610f4782610f06565b602082019050919050565b60006020820190508181036000830152610f6b81610f2f565b9050919050565b610f7b81610940565b82525050565b6000604082019050610f966000830185610f72565b610fa360208301846105e6565b939250505056fea26469706673582212203af591c7008a8639b953cfdb411315045b5d0b28f97e32f5eb664ddf6a21dd2364736f6c63430008140033",
  "linkReferences": {},
  "deployedLinkReferences": {}
}